:100000001AC034C033C032C031C030C02FC035C276
:100010002DC02CC02BC076C029C028C03AC026C035
:1000200025C024C023C022C021C020C01FC01EC0C4
:100030001DC01CC01BC011241FBECFEFD2E0DEBF0D
:10004000CDBF11E0A0E0B1E0E8ECF4E002C0059023
:100050000D92A436B107D9F721E0A4E6B1E001C0C2
:100060001D92AF3CB207E1F770D02CC2C9CF2F9AD6
:1000700084B5826084BD85B5846085BD86E287BD18
:10008000EEE6F0E0808182608083089580916501D2
:1000900008951F920F920FB60F9211248F931F99FC
:1000A0000BC0809164018F5F80936401853040F0C4
:1000B00081E08093650104C0109264011092650193
:1000C0008F910F900FBE0F901F9018952E98089546
:1000D0002E9A0895269AFCDFE1E8F0E080818B609B
:1000E0008083EFE6F0E080818260808388E09DE39A
:1000F0009093890080938800089595B180E48927C2
:1001000085B908951F920F920FB60F9211242F9365
:100110003F934F935F936F937F938F939F93AF938F
:10012000BF93EF93FF93E9DFFF91EF91BF91AF9101
:100130009F918F917F916F915F914F913F912F91FF
:100140000F900FBE0F901F901895C4DF90DF0BD05B
:100150002BD178944AD1811104C098DF813009F401
:1001600031D146D1F7CFCF932AE230E03093680106
:10017000209367018BE290E090936A01809369017C
:10018000C4E0C0936B0130936D0120936C01909398
:100190006F0180936E01B3E0B093700130937201F0
:1001A000209371019093740180937301A2E0A09356
:1001B00075013093770120937601909379018093B4
:1001C0007801F1E0F0937A0130937C0120937B0178
:1001D00090937E0180937D0110927F0167E270E031
:1001E000709381016093800148E250E05093830155
:1001F00040938201E5E0E09384017093860160936F
:1002000085015093880140938701C09389017093C1
:100210008B0160938A0150938D0140938C01B093C0
:100220008E017093900160938F01509392014093DF
:100230009101A09393017093950160939401509361
:10024000970140939601F093980170939A016093FF
:10025000990150939C0140939B0110929D0164E28F
:1002600070E070939F0160939E0145E250E05093CF
:10027000A1014093A001E093A2017093A4016093B7
:10028000A3015093A6014093A501C093A7017093C9
:10029000A9016093A8015093AB014093AA01B093C8
:1002A000AC017093AE016093AD015093B0014093E7
:1002B000AF01A093B1017093B3016093B201509369
:1002C000B5014093B401F093B6017093B801609307
:1002D000B7015093BA014093B9011092BB0130931A
:1002E000BD012093BC019093BF018093BE0147E004
:1002F0004093C0013093C2012093C1019093C40187
:100300008093C30146E04093C5013093C701209319
:10031000C6019093C9018093C801E093CA01E7E642
:10032000F1E041E050E0A081B1812C91CA0104804C
:1003300002C0880F991F0A94E2F7822B8C9335969E
:1003400081E0EB3CF80779F7CF91089525E0829F93
:10035000C0011124FC01E959FE4FA281B3812C9107
:1003600081E090E0048002C0880F991F0A94E2F7B0
:10037000822B8C93089525E0829FC0011124FC01FB
:10038000E959FE4FA281B3812C9181E090E0048075
:1003900002C0880F991F0A94E2F7809582238C93FC
:1003A00008956111D3CFE7CFE0EBF0E08081826068
:1003B0008083E1EBF0E08081826080838CE7809332
:1003C000B30008951092CB011092CC011092CD0190
:1003D0001092CE011092B200E0E7F0E080818260DE
:1003E000808381E08093660108958091660108957D
:1003F000CF92DF92EF92FF920F931F93CF93DF93F1
:1004000080916601813081F5C4E1D1E000E011E026
:100410004991599169917991F80181918F01C09029
:10042000CB01D090CC01E090CD01F090CE01C4166C
:10043000D506E606F70698F0C090CB01D090CC0127
:10044000E090CD01F090CE014C595F4F6F4F7F4F40
:100450004C155D056E057F0510F078DF01C08BDF60
:10046000F1E0C436DF07A1F6DF91CF911F910F9124
:10047000FF90EF90DF90CF9008951F920F920FB6EC
:100480000F9211248F939F93AF93BF938091CB01D1
:100490009091CC01A091CD01B091CE010196A11D0A
:1004A000B11D8093CB019093CC01A093CD01B0936B
:1004B000CE01BF91AF919F918F910F900FBE0F9082
:0804C0001F901895F894FFCF7E
:1004C800000102FFFFFFFFFFFFFFFFFFFFFFFFFF2E
:1004D800FFFFFFFF64000000C80000002C010000BF
:1004E8000000000000000000000000000000000004
:1004F80000000000000000000000000000000000F4
:1005080000000000000000000000000000000000E3
:1005180000000000000000000000000000000000D3
:0405280000000000CF
:00000001FF
