:1000000019C033C032C031C030C02FC02EC036C27C
:100010002CC02BC02AC080C028C027C03AC025C031
:1000200024C023C022C021C020C01FC01EC01DC0CC
:100030001CC01BC011241FBECFEFD2E0DEBFCDBF5E
:1000400011E0A0E0B1E0EAECF4E002C005900D920E
:10005000A436B107D9F721E0A4E6B1E001C01D92B2
:10006000A13DB207E1F76DD02EC2CACF2F9A84B559
:10007000826084BD85B5846085BD86E287BD16BC7F
:10008000EEE6F0E0808182608083089580916601D1
:1000900008951F920F920FB60F9211248F931F99FC
:1000A0000DC080916501882381F0809164018F5F8C
:1000B00080936401853048F082E005C081E0809340
:1000C000650110926401809366018F910F900FBEBD
:1000D0000F901F9018952E9808952E9A0895269A9D
:1000E000FCDFE1E8F0E080818B608083EFE6F0E008
:1000F00080818260808388E594E190938900809379
:100100008800089595B180E4892785B90895809184
:1001100067018111E0CFE1CF1F920F920FB60F92CE
:1001200011248F939F9381E090916701911180E05A
:10013000809367019F918F910F900FBE0F901F903A
:100140001895CDDF93DF0DD02DD178944CD181114E
:1001500006C0DDDF9BDF823011F432D1BCDF46D137
:10016000F5CFCF932AE230E030936A012093690102
:100170008BE290E090936C0180936B01C4E0C0939C
:100180006D0130936F0120936E0190937101809304
:100190007001B3E0B0937201309374012093730146
:1001A0009093760180937501A2E0A093770130933C
:1001B00079012093780190937B0180937A01F1E09B
:1001C000F0937C0130937E0120937D019093800118
:1001D00080937F011092810167E270E07093830148
:1001E0006093820148E250E050938501409384017E
:1001F000E5E0E09386017093880160938701509356
:100200008A0140938901C0938B0170938D016093A3
:100210008C0150938F0140938E01B09390017093A5
:100220009201609391015093940140939301A093A4
:1002300095017093970160939601509399014093B3
:100240009801F0939A0170939C0160939B015093E5
:100250009E0140939D0110929F0164E270E07093B3
:10026000A1016093A00145E250E05093A3014093A7
:10027000A201E093A4017093A6016093A50150939D
:10028000A8014093A701C093A9017093AB016093AB
:10029000AA015093AD014093AC01B093AE017093AD
:1002A000B0016093AF015093B2014093B101A093AC
:1002B000B3017093B5016093B4015093B7014093BB
:1002C000B601F093B8017093BA016093B9015093ED
:1002D000BC014093BB011092BD013093BF0120933C
:1002E000BE019093C1018093C00147E04093C201D9
:1002F0003093C4012093C3019093C6018093C5013C
:1003000046E04093C7013093C9012093C801909300
:10031000CB018093CA01E093CC01E9E6F1E041E032
:1003200050E0A081B1812C91CA01048002C0880FE5
:10033000991F0A94E2F7822B8C93359681E0ED3C6D
:10034000F80779F7CF91089525E0829FC001112425
:10035000FC01E759FE4FA281B3812C9181E090E02E
:10036000048002C0880F991F0A94E2F7822B8C93B5
:10037000089525E0829FC0011124FC01E759FE4F3A
:10038000A281B3812C9181E090E0048002C0880FAB
:10039000991F0A94E2F7809582238C930895611146
:1003A000D3CFE7CFE0EBF0E0808182608083E1EBA8
:1003B000F0E08081826080838DE78093B3000895B0
:1003C0001092CD011092CE011092CF011092D00167
:1003D0001092B200E0E7F0E080818260808381E0EB
:1003E000809368010895809168010895CF92DF920B
:1003F000EF92FF920F931F93CF93DF938091680149
:10040000813099F500E011E0C4E1D1E0F80181917B
:100410008F01843128F5488159816A817B81C090A0
:10042000CD01D090CE01E090CF01F090D001C41664
:10043000D506E606F70698F0C090CD01D090CE0123
:10044000E090CF01F090D0014E5C5F4F6F4F7F4F37
:100450004C155D056E057F0510F076DF01C089DF64
:100460002496F1E0C436DF0789F6DF91CF911F9122
:100470000F91FF90EF90DF90CF9008951F920F9211
:100480000FB60F9211248F939F93AF93BF938091D8
:10049000CD019091CE01A091CF01B091D0010196F4
:1004A000A11DB11D8093CD019093CE01A093CF01EA
:1004B000B093D001BF91AF919F918F910F900FBEDC
:0A04C0000F901F901895F894FFCFDD
:1004CA00000102030405060708090A0B0C0D0E0FAA
:1004DA001011121364000000C80000002C01000073
:1004EA0090010000F401000058020000BC02000064
:1004FA002003000084030000E80300004C0400000D
:10050A00B00400001405000078050000DC050000B6
:10051A0040060000A4060000080700006C0700005F
:04052A00D0070000F6
:00000001FF
