:1000000019C033C032C031C030C02FC02EC02CC286
:100010002CC02BC02AC07AC028C027C039C025C038
:1000200024C023C022C021C020C01FC01EC01DC0CC
:100030001CC01BC011241FBECFEFD2E0DEBFCDBF5E
:1000400011E0A0E0B1E0E6EBF4E002C005900D9213
:10005000A035B107D9F721E0A0E5B1E001C01D92BC
:10006000A03DB207E1F767D024C2CACF2F9A84B56A
:10007000826084BD85B5846085BD86E287BDEEE67D
:10008000F0E080818260808308958091510108951D
:100090001F920F920FB60F9211248F931F990BC0CE
:1000A000809150018F5F80935001853040F081E056
:1000B0008093510104C010925001109251018F9110
:1000C0000F900FBE0F901F9018952E9808952E9A9E
:1000D0000895269AFCDFE1E8F0E080818B60808360
:1000E000EFE6F0E080818260808388E09DE390937A
:1000F000890080938800089595B180E4892785B9A7
:100100000895809152018111E0CFE1CF1F920F92AB
:100110000FB60F9211248F939F9381E0909152011B
:10012000911180E0809352019F918F910F900FBEAB
:100130000F901F901895CDDF99DF0CD02CD17894BB
:100140004BD1811104C0A1DF813009F432D147D1F4
:10015000D8DFF6CFCF932AE230E0309369012093C5
:1001600068018BE290E090936B0180936A01C4E098
:10017000C0936C0130936E0120936D0190937001D8
:1001800080936F01B3E0B0937101309373012093BA
:1001900072019093750180937401A2E0A09376019F
:1001A000309378012093770190937A0180937901BD
:1001B000F1E0F0937B0130937D0120937C019093DB
:1001C0007F0180937E011092800167E270E070935E
:1001D00082016093810148E250E050938401409392
:1001E0008301E5E0E09385017093870160938601C8
:1001F0005093890140938801C0938A0170938C01C8
:1002000060938B0150938E0140938D01B0938F01C9
:1002100070939101609390015093930140939201E8
:10022000A093940170939601609395015093980167
:1002300040939701F093990170939B0160939A0109
:1002400050939D0140939C0110929E0164E270E0E6
:100250007093A00160939F0145E250E05093A2018A
:100260004093A101E093A3017093A5016093A401C1
:100270005093A7014093A601C093A8017093AA01CF
:100280006093A9015093AC014093AB01B093AD01D1
:100290007093AF016093AE015093B1014093B001F0
:1002A000A093B2017093B4016093B3015093B6016F
:1002B0004093B501F093B7017093B9016093B80111
:1002C0005093BB014093BA011092BC013093BE0120
:1002D0002093BD019093C0018093BF0147E04093FC
:1002E000C1013093C3012093C2019093C501809353
:1002F000C40146E04093C6013093C8012093C70172
:100300009093CA018093C901E093CB01E8E6F1E044
:1003100041E050E0A081B1812C91CA01048002C06B
:10032000880F991F0A94E2F7822B8C93359681E00F
:10033000EC3CF80779F7CF91089525E0829FC00142
:100340001124FC01E859FE4FA281B3812C9181E078
:1003500090E0048002C0880F991F0A94E2F7822B74
:100360008C93089525E0829FC0011124FC01E85977
:10037000FE4FA281B3812C9181E090E0048002C005
:10038000880F991F0A94E2F7809582238C93089531
:100390006111D3CFE7CFE0EBF0E080818260808312
:1003A000E1EBF0E08081826080838DE78093B30091
:1003B00008951092CC011092CD011092CE011092AE
:1003C000CF011092B200E0E7F0E08081826080838C
:1003D00081E0809353010895809153010895CF9255
:1003E000DF92EF92FF920F931F93CF93DF93809151
:1003F0005301813081F5C0E0D1E004E511E049917D
:10040000599169917991F80181918F01C090CC0146
:10041000D090CD01E090CE01F090CF01C416D5066A
:10042000E606F70698F0C090CC01D090CD01E090A0
:10043000CE01F090CF01445D5E4F6F4F7F4F4C1562
:100440005D056E057F0510F078DF01C08BDFF1E000
:10045000C035DF07A1F6DF91CF911F910F91FF907B
:10046000EF90DF90CF9008951F920F920FB60F92EA
:1004700011248F939F93AF93BF938091CC01909160
:10048000CD01A091CE01B091CF010196A11DB11D6A
:100490008093CC019093CD01A093CE01B093CF0176
:1004A000BF91AF919F918F910F900FBE0F901F90B2
:0604B0001895F894FFCF3F
:1004B600AC0D0000581B000004290000B0360000F7
:1004C6005C44000008520000B45F0000606D00004C
:1004D6000C7B0000B88800006496000010A40000A1
:1004E600BCB1000068BF000014CD0000C0DA0000F7
:1004F6006CE8000018F60000C4030100701101004A
:00000001FF
